:100000000C9419150C948E1F0C9441150C944115E9
:100010000C9441150C9441150C94961B0C944115AD
:100020000C94DB1F0C94CB1F0C94EC150C946E16E7
:100030000C94A7150C9441150C94F41C0C944115C8
:100040000C94A1270C9441150C9419220C94ED21C9
:100050000C9441150C9441150C9441150C944115C8
:100060000C9441150C944115072B0C2BFB2A772A75
:10007000772A772A772A772A772A772A772A772A78
:10008000772A772A772A102C772A9C2B5B2B772AC2
:10009000772A042B772A772A9A2B303134314B3147
:1000A000613157316B3179319231A731D231D2314F
:1000B0003E0A003D0053003D0052005B434F4E4658
:1000C00049475D0A00A20110B20110C20110D2011D
:1000D00010920108E2012C30313233343536373892
:1000E000393A232E202A000D0A002000302E323209
:1000F0000063426561636F6E200023666F756E64F6
:1001000020454520636F6F7264730023736179200B
:1001100056434300236C6F772056434300327C895B
:1001200000EDD968770000005900000000000000D1
:1001300000D69FDCA81817AA90437327F6B968ED7C
:10014000F4DED409FEE61C1C84DDE80B992927D6D1
:10015000DF8D210F036418EFEE1E99B7825276945B
:100160001500347C000026149E988F0000006A3130
:10017000168F8C059600E7B73F36000000000000A0
:1001800000AF669ED0385D8A6C20B95422007CEDA9
:10019000044C80387486EDCBFA57CBDC19E2001D95
:1001A000DF5506E5CB01C3000000000000000000A1
:1001B0009AB20086DBD0BC5416131586004E44BD9F
:1001C0007F6F151590010000B50000000000002FA2
:1001D0000000AEE500000000000000000000470045
:1001E000000000000000000000000000000000000F
:1001F00000000000000000000000000000000000FF
:1002000000000000000000000000000000005A0094
:10021000000000000008CC31AA2C532E000100037E
:1002200003030303030103030300000000036372DD
:100230006173683A000000000023002600290023B3
:10024000636F6F726420666972737420706F696E79
:10025000740023736B697020636F6F726400237383
:1002600061766520636F6F726400234D41564C497F
:100270004E4B20636F6F726473002374696D656405
:1002800020626561636F6E20696E69740023646922
:1002900073636F6E6E656374206C6F636B002364B1
:1002A000697361726D20646973636F6E6E656374E8
:1002B000002364697361726D206C6F636B0023436C
:1002C00072617368002341726D656400234D41566D
:1002D0004C494E4B20676F6E650023564343207593
:1002E0007000235643432069676E6F726564206C0B
:1002F0006F7374002356434320676F6E6500236E4F
:100300006F207645787400040000006408000064E3
:10031000617461000500000002100080FFDFDAC098
:10032000F1E999743601DABC9B083244243210801A
:10033000DBEE9A0910313433128098CEBE9A082031
:100340004335221088B9DDAD998011443312819074
:10035000B9DFBB8980214524110888B9DDBB890834
:10036000304534118090B9ECBBAA082064432100C9
:1003700088A9EBBC9A8910523523110899DBCDAAC4
:100380009908305533120088B9DDBBAB8A28633534
:1003900014110898CACCABAA88205524221088A82A
:1003A000DBCCAA9A88324633130198B9CDADAB990C
:1003B00008433633130098CACDBBAC89105335239C
:1003C000128098DACCAC9A8920544322018099DAC1
:1003D000CCBB9A08413534220188B9CDCCAA891802
:1003E000523433128198DADCBBAB883155332302A7
:1003F00080B9ECBCBB8918533533120089CBCECB06
:100400009908316333130190BACEBC9B88214434E0
:10041000230280B9CEBCAA009E4700183255322272
:1004200019C2E0CAAB9A52192216120098CCAC9AA3
:10043000083124332411A8DCCB9B882122253333B7
:1004400001BDCEAA892024335391C0D9A98C18228A
:10045000223268108ADDA9091014143188BAADABB4
:100460003AA017231121CA8E0CD09020378820A0E3
:10047000CCAB1830425323AAF9BD882123531490E2
:10048000F9AC8A30523322B9DEBA0941441218CA93
:10049000DC980842240080CC8D8810440180C0DBA9
:1004A000090860138000BD8C8010270008D8AB803D
:1004B00080640180A09E098851130808BF8880408D
:1004C000240808FA8A0828268000E98A08182600E5
:1004D00008D88C0808358180C09E0808358180B016
:1004E000AF080844010898AF080863010898AE886F
:1004F0008063010888BD898072020888CC89006009
:10050000038880EB8A8041158808D98B8821278051
:1005100019B99E88102681005741006AFF8A084059
:10052000249009C09D881036009A92FB89006102D0
:10053000A02AB0AD09203682C938B9AD095025804E
:10054000CA12C89B09611480BB23DAAB08711488F6
:10055000AB32C99C09501580BB50A0BB094827800D
:10056000C93982CB8A084601A88D23A8BC805015C2
:1005700008CA3984C98A88720288AD3193DA8A80C0
:100580007301909D4001BA9B80720388BC3815B9F5
:10059000BB88402780B98A5381CB9B80611490B976
:1005A000194280ADAB0861159099093291ECA98888
:1005B000202781980A2111DA9E8908510491881810
:1005C0000190DC8C8A1872228088088190ECAB99AB
:1005D0000873248188080888CABFA9083157018890
:1005E00088088880FA9C891872040089880800A00D
:1005F000DE8A881047018899892020B8EF09884051
:10060000150098BA083312C8EF8080610208B89CC0
:1006100018430198CF800800A95400260888CB8988
:10062000202500A8BF8080730180C89B18320591E7
:10063000E08C8880360008CA9A0842130089DF8857
:1006400080511308B8CB89202403A1F08E091843E8
:100650000380AAAD89112403A0F99C090044230852
:10066000A9CBAA104213A099DCA98930462388A9F6
:1006700098A9A980000012B1ADAD8A40351123229E
:1006800091A9CDBAAAA800211310A7101983821C22
:100690009C0A0434581BA0F2B083F34A9038A91284
:1006A0005B0F028A308AC5A182C38902B8559B912B
:1006B0003A2C7D983A81A0B2D4B19780001A1A7969
:1006C0002A8889181EA310E389A780A280285D2AA2
:1006D0004B1B3A08C201F2A281C2A39030229F4074
:1006E000880E0399211F884888A87BA995911B072C
:1006F000AB83B3A2109D11421F281D309A09A29707
:10070000A995B022B0791A093B820AE2C408C30154
:1007100091102C2A203E0A00FC3F00B312A0BA7DA3
:10072000004B280D4A10A8C893E493B4A0509A88AF
:10073000425B3B0CA8B2031A9097803AA118918CA7
:1007400030A020C93A20BA097193A2234B5DE01171
:10075000A198003899F180881819198080808080CC
:1007600008800808800880080808080880808080C1
:10077000808004040000003B080000646174610094
:100780000500000003010077FFFFBF47B901AA532E
:10079000900AA1EA72939BA8CC2E578808BE2084A9
:1007A00010919E210001B800BE28033084AD3002B4
:1007B00011C9CD09112034B80A240190ECBC1801EC
:1007C0005113A9411100B9FD9B000073810821005C
:1007D00090B9CF8B0018458110020088CBED8A08B4
:1007E00000630210028098CAFB9CA06708098898E1
:1007F000999900184314108190AAA9CDAC89804220
:1008000045120100A99A9CCD9B8810732411019078
:10081000E910ADBA89084254121000A9AADABDAA9B
:1008200018483613021199BBFBBC8B1A2065138143
:100830002289A9DCBC0B09214612028180B8BFAD18
:100840008888417300018181D9BD990008731168BE
:100850001880A8CE88808141030011049AFF090105
:10086000183090012492DF8A300139A3AB5600E999
:100870009B20230081BD6282F88A20030080AD5353
:1008800080BD0800BE4E00160080BC6281AE082309
:100890001010FA3903DC08220011E93A04EB0822AF
:1008A0008814D93A84BC10032A05EA48819D20B2F5
:1008B0005882CC42B00C21A963A00D24DA18813AE9
:1008C00015CA4982AC00907181AB3192AE00804470
:1008D00090BB52A18E001805A08A32E00B806802FE
:1008E000A90A15E908885280A83B04BC9018268004
:1008F000C94892AC98301581DB51A0AA8931259066
:10090000AC34A99D093115909C24A8AD08301590F0
:100910008B2498AF092015809A2390FB0C18431064
:10092000AA4001D99D083123A08915A8EB8B297312
:1009300000882008B1FBB910331391590818BD8FF6
:10094000193082A296B2B4A29C5B4B1A29023810CD
:100950002E8998D8D0A48292A1334BB0491F09396F
:100960008B00480883E3D2A3B193A07A0A7A093AAC
:100970008900B8B5A380989400007B1B3A0A69C926
:1009800093D49300034400A001B191C4114B998109
:1009900080218C088108AB9738F2818090413A9D84
:1009A000402C6A2B199AA780B1D492B308A2309A2E
:1009B0007A1A184D1B104D8A921099D482D392B294
:1009C0008021997C8A1018192B90D197888010115A
:1009D000AA5D89383B2DA801E483C878C0A5080921
:1009E00028889983213E8988C32189B28B0459893B
:1009F00080E112099F8AA21703012109EFAB8A4106
:100A00001782A898214201CAFF8910411280999942
:100A100000184301FBBF08312600A89A891033044F
:100A2000F19F8920440199AB0911313120FD9D08C6
:100A3000401580A9AA0031113048EF990051038078
:100A4000BB9A2122103878FC9980411480B99A1001
:100A500001819185C69C0A287301889A0981C090FA
:100A60000306C28D1B082314181880B9AE891052D2
:100A700023FACA89282414110098BDBA886233AEBB
:100A8000C9884800EC4B0032110180DBBC8A51431D
:100A9000EAB809393315121098CDAB0863029FA943
:100AA000803142121200D8EB991024D28C0B881599
:100AB00022310180CBBE892125F28A1B1923142201
:100AC0000180EBAC8A2225F29A0A19142331119085
:100AD000CCCC891224D49B0B091523410081DACB9D
:100AE00099205203AFA9903332331382EBCCAB8100
:100AF0003345C19D0A091333431281DACBCA093049
:100B00003487D88A8A1804234210A0CABBAD0131A9
:100B10005590DBA9093033343311CADBAC9C013367
:100B20005588DBA9092042422201A9DBBBDA194121
:100B30005284B9ACAA103135242288ABAEAA9A9B54
:100B400021376381CABB9A193235352290BACCBAA3
:100B50009C083346828F9AA01331300403BACBBB72
:100B6000899819B040733413C0CC9C9B80434433A4
:100B70001298CBCBBBB988124143221319B8CCAB26
:100B8000BCB86000F83C00223321A9FABEA9085283
:100B900043221280CACBBB8B901003255121818840
:100BA000ABCF9A8841131411089AAABA2C0C81224F
:100BB00038320F880088008800880088800088000C
:100BC00088008880808000080808040400000096DF
:100BD000070000646174610004000000FB0A007FEC
:100BE00077975A40CC93A68832F13B81B8512A5B63
:100BF0002D11D990B5C295184A2B3F181D10A8D3B6
:100C0000B6A282183C4C3B1A89A3F3A4A2291891DE
:100C10008AA0510B582A3F0A28C0D4C3A393293C69
:100C2000292E588B1991F194A288102A49880C809A
:100C300093D3285B2A5B0C01B0D393A2195B950E6A
:100C400020880AA1C5941929A20909B1441C1B8155
:100C5000592C1AD092B418A3C802F88508108C58E1
:100C60002B192A28D082C1C2930000291E90185245
:100C7000CC33AA39510FA309D391B3A318492E4AF3
:100C80002BA000B1B49288A23028EB481888202FFE
:100C90001B93C2F392111A1B204F8A92C2A2119881
:100CA000024C8909001A101C59BA8588E782809085
:100CB000816A2C1908A080A3B2201E021A81F9B5FE
:100CC00092B4004B291A7D1B189881D2A391B201CE
:100CD000C1143F9A041CC22099122D00033200F067
:100CE00092D6A30881381E003B4B90199A97082989
:100CF0000AA50A9239F6A2A399855A8A103A2D3B81
:100D0000A41B399AB61091C191939883E391204F17
:100D100098923C391F9110B09013C9842D309B28B4
:100D2000B229C7B1C341911B093F7A0A390B29B1D6
:100D3000B1A793F3B3B223910F2A494B2B8B7809B8
:100D4000990002E3A3C1948091085C9A5B0020742F
:100D500088CAB8DC1844140290FA8F8800521180B7
:100D600088C8AD08087103808808DC8A0848160026
:100D70009888C1AC88807482808918AD9A0868060A
:100D8000809980E3A909085581901B38DBAA80402F
:100D90002708C800818D0B087102809C11C2C98888
:100DA000004581981D11A9BB80402780D829219B2F
:100DB0009D08400680D910119B8C09611388EB2097
:100DC00002AA8E08500380CC1112AA8E08401498F3
:100DD000BA5011CA8C08600290BB500072520018C1
:100DE000DD89806381A88B5281F09A804103A0BA8B
:100DF000412388EF88103201A988322399FF0B180C
:100E000042018888202298FF0A1831028018182190
:100E100090FBBF08211481008181019AFF8B103261
:100E2000130010009991F8DF08003302001088A920
:100E300090F0BF09203483811188CB80C2EF090074
:100E40003313182088DA1C38FB8D08121581010035
:100E5000A8AD3948BF88004042000180C9AB1932B3
:100E6000F49B0B195324220098BA8D08F18D0A08BF
:100E70004324120090CAAC8882BF99804245210069
:100E800080B9BC0C20F18A0A296314020088CBAC1B
:100E90001931FAA9883854230200A8DCAB2941E1B2
:100EA0008A8B183426211888CABC9B3153F899893B
:100EB000284315020088CBAD8A3142F0990A2943B4
:100EC000241200A0CBBD9A2034A48F9A8823352207
:100ED0001090AACEAA084133F0AA8A009B4400735E
:100EE00043220181B9CCBC892135B39F8B8943341E
:100EF000220180BACDBB89304502AEAA9842532266
:100F00000181B9BCAD8A186222F8A989295323222C
:100F100010A8CBCCAA98103354819FAA984343229F
:100F20000291B9CCAC8988113843F9A98969331485
:100F30000210A9DACAAC9A89114444221190DADC71
:100F40009B89185334221088BACCBBBA9908224521
:100F500025241188B9EBCA9A8A093035342412083D
:100F6000BACCAC9BAA18213525231291C9ACBB9CE5
:100F7000AA81304334343118B8DC9BBCA890115896
:100F80003316122099ABBFBA181913171391098B96
:100F90008E90081C298A3283979620990AAA2A3AA9
:100FA000080D43A620A88AC0BBC884B37809520A9A
:100FB000940808B2808080808080808080808080DB
:100FC000808080800808080404000000C206000039
:100FD000646174610004000000010200F0F7F7F2A0
:100FE0007F4B2B89929100A0B2A5A18108C37E0BF3
:100FF000D394004C2B08C1C3B4A3301D08B2382EC3
:101000003A1AD2945A2CB8A6014B3CA8D3A5003A60
:101010002BA8B6B3305E2B89D2B5824A3C89C2B4C4
:10102000014A2B09B1B5824A3C0AB2C482281C90FD
:10103000B282793CD8C6025B2C98B492284C2BA87B
:10104000B59200291A098088E4B3027B3B0AB1B546
:1010500092492C88B2013B2AE1B5811808492DA894
:10106000B582294B0AD1C6025C2BA8B4826A1B88C0
:10107000B2B4113B2A99C4A391791CA1824B0AD224
:10108000833A1B29208CE5A30189C4214E2C98C3E7
:10109000A3383B0BD3822909A1814A1BF3B5203B1E
:1010A000C8A591384F1A9881182AD1B4010898D34D
:1010B000947A3D99B4824A2BA8C482398A926A2BC9
:1010C00099D582390BC294494D99B2012A1AA48448
:1010D000100AFA99287801810050560000899F80F3
:1010E000816308A89195C00C082087800B5980CC9B
:1010F00080006380B8A816B80D084003809C598111
:10110000BC88103581C89925D98A08611188BB40EF
:1011100083AE89101681A88C52B0AB08781290D992
:101120001814D999806310898D2084DA8818258055
:10113000A98C5281BC88201790C9096280BC082004
:101140000680CA096200EA88101500BA8B6112A8ED
:101150009F08518298AC102481F88A182580BA0B18
:10116000602108BE80200690D908311209AF0940DD
:101170000390EB80320208BF88400490CA094212F3
:1011800009DD88201491D989211490E08B18621010
:10119000998C19520019CD88111481D89911148095
:1011A00088AF09302400BBAB320781A0AF88303450
:1011B00000BA8D10330008FF88003302A8BB094233
:1011C0000292F09F08313380B99C28312089FF9822
:1011D00000421390A99B20300024490090DA9D889A
:1011E00031351298B9999180009BBF8A18635300DA
:1011F0008888A0D2B298090A894968598A300AB108
:10120000849B08D78208388F95810A3A3A1BA094AC
:101210000E8287191A8EA79208083A2B0819290CF2
:10122000203AD0019097C2294F3A19FAA494180A8B
:1012300019081888A1103A4A085CB984D03C940176
:10124000081B0C5C0CA781888018081990681BC8C3
:10125000833A11B991810A087128F881393B1AC083
:10126000B412B8838A98315E291BB120DAD69598DA
:101270000129181A2DB148B12FB393B2085B99A375
:101280006B800929D8831AB35B390C1808B3018A1B
:10129000B3B3078C699029092A8A7B9882023E8918
:1012A00080B0D611B101A1208AC0833C4BB8B4C331
:1012B0007B10A0A2B28B8580D0306CA0A0B2B7808A
:1012C000820AB2408B80D0874B190A82E003AA873A
:1012D000929A401C492D08C80000310000399B6DCE
:1012E00088E192828993972C392E182A2A2D90C44E
:1012F000A2B2D6A3A2A30A5909581C5C091919A0C5
:1013000080F816A098B08302BA3981223F4E08199E
:10131000288E94B1850A901AA618193C008B2A28A9
:10132000B4A4E011B085E11893B188222E6FB808FB
:101330004229A0DAB018210942920293DB80B1D48D
:10134000004A48088C081B8280808000880008883A
:1013500080000888800088008800080808088880C5
:10136000808080800404000000AB0400006461748D
:101370006100030000000009003F3F7FC9D6F09FD5
:101380007E96B2D1A000283B2A0A18323781C8CDF8
:10139000891135128188DF8A083026008899FA89F8
:1013A000880154018889A88F09085113008A88FB95
:1013B0009A802127019889B89F8800631208AA8122
:1013C000EC9880312681B819C09D09186402889B69
:1013D00001F99980302780A82B819E8A00730290A2
:1013E000CA21B1BC09284701998D13C8AA08501514
:1013F00080BA3C04C99A08720290DB3083CA9B0011
:101400006500A8AB6101CA99103580D90A5181CA1B
:1014100099201680CA096280CA09201588CB085312
:1014200000EA09201498CB002401D90D282388ACA8
:1014300019430198ED084181A88911222898FF08D5
:101440003281AA0921123898FF094380AA08128123
:101450001083FF895281B90812008822F98F301356
:10146000B90B3282BA3015FB0F4181AA1822A09A1B
:101470004183EF0843005A5500B9093390AC30233B
:10148000F08F2004C8093280BB3814B1BF1817A0F0
:101490008B4181B91A4300FA8B7101BA1823A0ACB1
:1014A000212390EF085280AA2813A89C301390FEA5
:1014B000084200B9192291AC193481FA0E3003A008
:1014C0009C3012A98D482289CF803383B8BA111479
:1014D000A0AB30529ABF19521291A9998191A08064
:1014E0008080A91A4B5031302009BA90EBCB900183
:1014F000A180201584A2021D10A08E00282A0308B6
:10150000F8890088E44819A0328B80003E3F89A208
:1015100038C3FA864A0BB2A281A74AC039000B4AE7
:10152000A31F949808A399072E08908038B802E466
:1015300001901820BA6F1A08089A050AB3C3D1059A
:101540009B84A8130C2A81182AA27E800C8081819A
:1015500009A2B2C24831CF9798719080AADB0102EC
:10156000000680A2943A2E8B20B06C88189119A0A6
:101570008800CC95A1000235003D0E8598D18120D0
:10158000C2A030097AA03A191A828A12C1A1D7A042
:10159000148A8110AC2923CA97B012011F4B81090C
:1015A0004B0C048A3085C0F9810810295981A9485B
:1015B000181F88A094A5B1834A2C8C9096C3828969
:1015C000393B8939591F29A0B1C458E2082228B8EB
:1015D000ACA0298819270808088008088080080816
:1015E00080088080088008800880088008800808BB
:1015F0000808808080040400000076080000646110
:1016000074610005000000FF2F00F4F874989988B9
:101610000830188008A099A02308B5B6A4190B5A61
:101620002A112E2B195B1AB0C295C5A210F0925840
:1016300008D19108A1826A5D4B8AA1A20118980085
:1016400028F1B2D692102A28293E3E8AA2A3C4C30A
:101650007B818988092008B2F2110928490BD8D466
:1016600094102A3B3B3C2B5A3D8AC5B3B4D3A2A36A
:10167000011A113E5B3C3B8AA28190B2D59328B9F6
:10168000C383302E3A2E1980B1D5B3B3117A3B3DC6
:101690003B0AC20190D38208F2C4A3103A4C1B98B3
:1016A000A2125E3C3A1BA0C49280B2C293B2D5B4DF
:1016B00092384E3B1AA8B3036C3C0A900199C3B50B
:1016C000B3B4A2205B2C09A1B392202F09B2829857
:1016D000794C1BC192206C1A89D2A40088C2B4A490
:1016E00081283C0D1A5A49288090E8AA9811551271
:1016F00080A9FA9A081055018888BA8F0900440217
:101700009098B99F091800DA540023008998FB8942
:101710000848340099A0F98A093046808898D99AF7
:1017200008203781A098D88C092045829898C88EC7
:10173000881044829089A99F88004403909999AFAA
:1017400098004404800A8ABD98807314080A8AFAB3
:10175000908030350899C0C00A1A294583A0090C29
:101760008AC0A8302301141201C8DCAC9A1042537D
:101770001312A8CBCD9A881153330381DACBAB89EE
:101780002042532200C8BACA9A0932342402909BDC
:10179000AEA9A81824313321C8CACB808D806381BB
:1017A00031B101DAD8191E010138121CA0D2A08073
:1017B0005A19808384F389293D1B205AA0588B0233
:1017C000D891F4A5A0B5E380F779188B8199A38708
:1017D000090AB08618391D180909F1A7A2182B1992
:1017E000A281493C2AA1C5A1893A68291908E3D3F5
:1017F000A0991071310098CF890840068180E88A4D
:101800000A2871118890001D50008F88185102809D
:1018100098F989881054008888CC9880211781888D
:10182000989E880831070088B89D881861038090C9
:10183000D89C880072028088D98B8910740108981E
:10184000D98A881064018888EA89881054018898A8
:10185000FA98801044018889FB890810350188981E
:10186000DC99882046018898EB9980105500809873
:10187000DA99092864028898E89A881072028088A8
:10188000B99E09085215088998AD99083147008911
:1018900098E999802854829098B89E89187213808C
:1018A0009998CC99882147019889C89B0B29731670
:1018B000088A88D9A888104682908A88AD9988516C
:1018C0001781A888989C9A08721580A888889C9B84
:1018D00088414700988989B9A999384781001188BA
:1018E00098A9DABC9B08525323210001CDBDAA99C7
:1018F0000116140492020D290F8C8A0821260280F9
:101900009899A0E8DA8900B35000002304818999EE
:101910000880DCAC092874038098A901A2FB8D091A
:101920002864118899891091CD9B0940370190A9AD
:101930009A1283FC8C0920360288BA9A2114EAADE7
:101940008810550288B99B3033B0EF89006203805C
:10195000A9AC183302FA9C08303600A8DB89222390
:1019600091FB8D08422380C99C19421108FA9B0003
:10197000511480A9AC08330380A8FD8A0044039069
:10198000CB8B3024809910F98F18510288CA893086
:1019900022989902F39F80422288DB0A3013A09B91
:1019A0004851BF88202582B9AD112391D99085D3A4
:1019B0008C19611188BB0A510299AB2286F09A00FA
:1019C0004401989D083281AA8A3205FB8B003601BA
:1019D000A99D183380BB0A4402FC8A104481B8AB2D
:1019E000282590BB193402F98E084302A8AC18339D
:1019F00091DB09421298DF88301580B98B4113B909
:101A0000AD283482C9DB00B64D00085312A0C908C6
:101A10001392DC396110A8BF185292A88A3292CB77
:101A2000980181898974218909BA9900003825F1C2
:101A3000BF4002A1810491BB8C2801801102F99F53
:101A40005001981012802A1FCF8197911838298B46
:101A50009A9111080888008800088880000888008A
:101A600088800008888000880088000808080888A6
:101A70008080808080040400000010050000646104
:101A8000746100030000000100007F776F4F4D3C40
:101A90004B5B2D09FC270C80F301B1A5283C3A1DB6
:101AA000292A0188C0B592A29101001C3A3A70001F
:101AB000BA9E9A0863241108FA9D08085311080079
:101AC00008CF89805804808892F19A8880360098DF
:101AD0002928BF89807803809902F99A8008378085
:101AE000901A009F8A806013089981FA998810548F
:101AF000018909989C909801231311012138B8FF9E
:101B00009E88002042231281C9DE9A881031341445
:101B100002000CDD9C888152842011A8CC9D0921F3
:101B200033233390DFAC882027010880EAAA89009C
:101B300073038008A99F0A092027008880C999AAF1
:101B4000094134102082B9FBCC892853123201BAE2
:101B5000FDAA882127011080ACAD8A08731300808C
:101B6000B0DD8A082846810008CB9D88806213007A
:101B700008C8BD89803047808080CC8A080864020C
:101B80000808C99D880800904F0055010880D99C1D
:101B9000080860130008A8BF88082836018080DC88
:101BA0009B080872130008B9AF8908382701809094
:101BB000FA9A080862130880B8AF0A88203611081C
:101BC00090FA9B090852241008A8BE9B8810461260
:101BD0000080C9BD8A083037110090EAAC89805175
:101BE00043010098FBAB880052240100A8DCAB89BC
:101BF0000063331200A8DDAC89004125110090DBA1
:101C0000BC9A803237030080CABE9A883055128150
:101C100000A9CDAB89107233010098DBBD9A084052
:101C200045128008B8DCAB89006334018008CADC47
:101C30009A88105423018888DACC9A881055138129
:101C40008089D8BCAA0928742301889899BE9C89E8
:101C5000085135128088B9CABD9A9910653302803F
:101C6000A0DB9AACAA99286525010098CBABA89A6D
:101C70009A897346020188B9CC8A9098A90972366C
:101C8000120088DAAC8A00CC420083B8DC89743454
:101C90001281A8EBBB0A4101A9CB896335220099C7
:101CA000CCAC89203391DBBB0964342280AABDAC63
:101CB00088203214A1BDAC1962341280AABC8B10EA
:101CC00092BDAD8963352281A9CCBB892032230125
:101CD000A89AAA808393BA397B24121210B9FB9A6E
:101CE000AAA187120108D0A199011C8B0282703928
:101CF000282F8ABA950102948E01BA51694B000BC4
:101D0000ACC6949180101B089080B301280F002A64
:101D100008242F2A6C4B9F87090808080880088030
:101D200008800880088008088008800880088008EB
:101D300080080808080880808080808004040000F3
:101D4000007006000064617461000400000000047B
:101D50000080F07767FBA00EA88F817733A8FC9BEB
:101D60000810422332800192BFCF9A0011523222D2
:101D70001091A9EEAD8800113424018188DACF8951
:101D800080103125120188A8EE9B88002044230290
:101D90000088EBCE8908003234230180A8DFAC88AC
:101DA00008115243118080B9CF9B88002154230130
:101DB0000088DABE9B8810314622010098FABC9A4E
:101DC0000800423523108098ECBC8B8810424512E5
:101DD000018098FABC998810413523018098DCBDB8
:101DE0009A0918323723118098EBBDAB88184154FB
:101DF00023018190D9BD9C9900205433120080AA00
:101E0000CFBB9A8811734322000099EBCC9A090842
:101E1000324523028190CACDBB8B09204525121182
:101E200088A8EBBCAB8908434523120090CADCBBF1
:101E3000AA8930545322010099DBEBAA9A08314554
:101E400033230188CAEBCBAB992852443200314688
:101E5000000191B9DADBBA99185162413C85984C7E
:101E6000A8D88AA1B45381D3316B0AF009090024A0
:101E700001090081B0EF88003113A8292192F09F59
:101E800088003103A8311180F09F89002123892324
:101E90000281F09F8A08113308241100C0BFBA895B
:101EA00011431154010190ECBA9A182043532310A6
:101EB00080CACEAA9910313435110198DCBCAA0928
:101EC000103355131280AAECBB9A88225344120295
:101ED00098BBBE9D99182244331201BADCBD9A8882
:101EE000123444220198CBCE99091832355390A16F
:101EF000EAAAAA182034541081A9BDAB9A2023372E
:101F0000140091FBAA9A083044241090D9AD990985
:101F10002114270109EB9A99194241528299EAAB9F
:101F2000A8181422262290DD0B9C39423EA61208E6
:101F3000FB88901014B8334098EF10904181AA317B
:101F400004F88B301813D9894480DC083200364CF1
:101F50000011FC0A2580EB884380A88C5101B88DC4
:101F6000488398AB301688CC082598AA282310D827
:101F70008F4081A909140912FC0833A88C31A148AB
:101F800091BF5082B919049923F00C42889B31917A
:101F90002C23FC1905B81A33BA6982AE4883BB30CA
:101FA00084BB53A19E50919B31A29C34B09F51B1F0
:101FB0000B32B10D24B89D62B01B32C01B15C09B03
:101FC00073B81A32D01A1498AD61B10B32C11B33F9
:101FD00080DD49949B22928D2281E80B17AB201261
:101FE000CB301100CF50C21A21B02A8211E29E35A7
:101FF000BC32809A110914F92C960D03080A813914
:1020000002F92EA42B810189811800A3FF248D825F
:1020100028A02880892001FF33AC8339B12880892A
:102020000050F15FD13889038B8398082A16FC7819
:10203000C9112AA32B8198982095D82FC6399914B5
:102040008B0209A910120BF46EC8112AA300EB52DF
:1020500000120AC00020B816BF168C9240A8108843
:10206000980A22B863F93AB38828860980889B10B9
:10207000842A83ED29A2085084099098AC12211972
:1020800003CE8D048A1343A8009ACB09538822B14A
:10209000EB9F128380808008808008088080088001
:1020A0000808800880088008800880088008800868
:1020B000808080800808080404000000AF0600004B
:1020C000646174610004000000FF0400F7F7F7C5C5
:1020D000A491D97FF6210AD1228BB2130CA2013F21
:1020E000B48838C0A86DC31930E8218889108802E7
:1020F000FB79B00915AB13A83091CF62BA28848C54
:1021000012A822E1AB45BB31B31D12AA15C99A270B
:102110009D31D229821C03AC2A978B52D821A14A27
:10212000A2BB7AD308239D12B041A8DB63BA108505
:102130000C129A14AABB379C30E329012B83AB0FF6
:10214000978B61B910A25990AA5DB29934AB38C28D
:1021500022B0FA79A08A079B409811A8FB438A2BEA
:10216000A699311928AAAF07B869909A048001BAD4
:102170002F84C932981C129091F959008C13C029F0
:10218000212A89BF14B22C31BB108680A91F22E8F6
:1021900010838B5881A0F910138E30A1A933018BC5
:1021A000BF23B69941880B2392F91D51990A02B2B7
:1021B000804208DF0104A80920280882F80E3001B7
:1021C00098A901141199DF8000D052003181C8A86C
:1021D000321499EC8818401188890101089CFA8909
:1021E00000211131423280FBDC9A09203243251153
:1021F00090C8CCAD8910213425110899CCBD9A081E
:10220000215432220098DBDCAB8810524313029039
:10221000B8DDAD8908213434128098DBDD9A88114D
:102220004143230190B8DE9C8A0021533313009967
:10223000EBBEAA08104235138280B9DEBB89085074
:102240001522128098DBBE9A08204334334A90CA84
:10225000ECAA88101355110080C8DA9C89204141EE
:10226000128281E0D9BA0A104342412880B9FCBAEF
:1022700088114332501119ACCE9980112404129167
:10228000B1AE8F89103211321280AFAF9800330493
:10229000112118CCCD99004313114818FBDA981876
:1022A0004213002028FCBA89187312082818CDCAD6
:1022B000881054828810809F9B882136818801B0C5
:1022C000BF9A086115808800004C5200BB8A094003
:1022D00026819881C0AD89197213080A00FB9A887B
:1022E0001037819818A09F8A084116809901D8AAB2
:1022F00089187402880A01EB9A88113602A94B01E9
:10230000AE9B80313790993280DE8A0841149089E3
:102310002280EE8908311490893200FC8C08301438
:1023200080A81203F89F0810320009392188FF891C
:1023300000111380082110DABF0910320481001146
:1023400000FBAF8881233228080100FABF880040D3
:102350002202820008A8FD8D09083243120000897C
:10236000E9BF898830442300009999FC8E881821A0
:1023700034020088B9A8FD9A88185343018188CA9D
:1023800099C99E89005124130090CAAC88C09C89C9
:10239000006433210088EBCB0802BD9880612422C1
:1023A0001080DABC9941D19A091854132200A0CDAB
:1023B0009C0942C09A0A1835151200B0FBAA0831D0
:1023C000948F998022253101004C4300B9CF9908A0
:1023D0002202AF99802255118280CAAC8A1012A1C4
:1023E0009F9A002446100198BB9E891111B19E89C5
:1023F0001924361201A8CCAB981101B1AF9A185428
:10240000441210A9CABC99012120F8AA894063246A
:1024100002809ACCB89001288BAFA918444512814C
:10242000A0B99C0C1A98A0BBAB1A375631F0888023
:10243000808080808080808080808080808080809C
:10244000808008088008808008800880088080805C
:102450008008080804040000000C06000064617491
:10246000610004000000FD0000777757A220EB9880
:10247000DC8A3179235091880AD9FB8D08115313D6
:10248000130898B9FFCA09182327210118AAECAC30
:102490008C803254221108A8BDAFAA002145131127
:1024A00000A8BCBFAA08305414118090CABDAC88E3
:1024B000104425118080BACF9A88104226010080EE
:1024C000B9CEAA88104226110088A9CE9B091042D5
:1024D00017010090B8DD8A88015314010098DABD15
:1024E0008908115512008098EC9B89002237020060
:1024F00080B9CF8A88104116010088C9AE890810BA
:102500007312008098DCAB88104136108090C9AF00
:102510008908116312000099ED9A800032260100AB
:1025200098F99C09081154118080B9BF890820626C
:10253000230000A9CF9A80104125010099EC9A88C8
:102540000042150180B0BF89200804718108CABA11
:1025500089411112349180ED9C093281332480A885
:10256000DF9A08430800155400110008CA9D09505D
:102570008010230098F99D0851A020128190FA9CA8
:1025800008539931020099F99D0834A941018198B5
:10259000F99C1824A9410200A8E89D0834B950020A
:1025A00080A0C9AD8855B848010890A9BC0A73B28B
:1025B0003A14088899BE8A70940B23808099F99AFE
:1025C0002817AA4181809889CD8873A0290308889B
:1025D00099EB9A3827AB4300089999AE8A72B32BCE
:1025E00005808098C99C8837B94802089809F88BFB
:1025F0000827B9488200A819E09B1937B9380201A9
:10260000C829D09D8854B0290211C03BB2AE8A6857
:10261000858B0338819F03AAA88A66A8188022D8D0
:10262000299808AD1937A9182803CB9139F09A8950
:10263000579A013B838AE130C9889A73A1913B86FE
:1026400008C92189A8BA2A670AB85208A01B8101C3
:102650008EA96894901B0420BAB16A98B08C6994D2
:10266000811C820288002052000A888098AC503079
:1026700096201CA1931B9EA102BB2A1427498AB154
:102680008388CB0A08B8BE147220B1B3102A9BEC21
:102690000018BB8C8527282A9AB2A3980E1A90D9C5
:1026A0003B508792001B2A91D8B00140AC8D820725
:1026B00002181C0991C0A10038EBCA1172210899B7
:1026C00088A2C1890939A9BF1C222793800A3A9997
:1026D000CAA19101DCAC5B502293A18890BA890910
:1026E00008B1EEDB025332101A8AA9A8B48898C840
:1026F000AA8C1B4C34523200A80AA491BEBAAF99DE
:102700002870220282A0A111DAB80DAB1022824AF1
:1027100089297008A50502B2F0AA2C4B192A2F2985
:10272000018582B1B4E2A080A0181C3029123D00BE
:1027300006999A088AA788C3A04889397F7B892D82
:1027400001C0B4B4B2A29491295B4C1A2A4A0A88F7
:1027500080A1B3B591A1A393C28913813C2E192006
:102760000A2F192929000137003B3F3A898018991F
:10277000B2C5C5A4814B5B2A0A00080808080808EE
:102780008800880088008800880088008800880009
:10279000080808888080800443039D037B03C702E8
:1027A000800491029D03FD0358046C045524B82055
:1027B0003D1D761AF6156513C80FCB0B730707037B
:1027C00023454550524F4D20777269746520646FE0
:1027D0006E652100236368757465206F6E000500C7
:1027E000064007010A050B120C150DFD0E00300006
:1027F00079007A0570240B120C150D107102720805
:1028000073007400357A1D402A14365537553855F3
:10281000395500FFFFFFFF02040608070008000902
:10282000000A000B000C000D000E00100011001338
:10283000001500170019001C001F002200250029A8
:10284000002D00320037003C004200490050005883
:102850000061006B00760082008F009D00AD00BE1D
:1028600000D100E600FD001701330151017301980A
:1028700001C101EE01200256029202D4021C036C37
:1028800003C30324048E04020583051006AB065619
:10289000071208E008C309BD0AD00BFF0C4C0EBAA2
:1028A0000F4C110713EE1406175419DC1BA51EB6A6
:1028B000211525CA28DF2C5B314B36B93BB2414488
:1028C000487E4F71572F60CE696274FF7F00000011
:1028D00000240027002A0000000000250028002B0B
:1028E00000040404040404040402020202020203B9
:1028F00003030303030102040810204080010204C3
:102900000810200102040810200000000800020145
:10291000000003040700000000000000003C4E55CA
:102920004C4C3E006E616E00696E660025692E2576
:1029300030346C750000407A10F35A00A0724E18C3
:10294000090010A5D4E80000E87648170000E40B61
:1029500054020000CA9A3B000000E1F50500008027
:10296000969800000040420F000000A08601000081
:1029700000102700000000E80300000000640000D1
:102980000000000A00000000000100000000002C10
:1029900076D888DC674F0823DFC1DFAE59E1B1B7D5
:1029A00096E5E3E453C63AE651997696E8E6C284A2
:1029B00026EB898C9B62ED407C6FFCEFBC9C9F40BA
:1029C000F2BAA56FA5F490055A2AF75C936B6CF9DF
:1029D000676DC11BFCE0E40D47FEF520E6B500D0B5
:1029E000ED902E0300943577050080841E080000CA
:1029F000204E0A000000C80C333333330F986E1298
:102A0000831141EF8D2114893BE65516CFFEE6DB9D
:102A100018D1844B381BF77C1D901DA4BBE42420E7
:102A20003284725E228100C9F124ECA1E53D2700C9
:102A3000933611241FBECFEFD8E0DEBFCDBF25E017
:102A4000A4E5B2E001C01D92A235B207E1F712E0A1
:102A5000A0E0B1E0E4EBF1E702C005900D92A435EF
:102A6000B107D9F715E1C9E1D5E104C02197FE010D
:102A70000E94BE38C831D107C9F70E9466290C945C
:102A8000D8380C940000CF92DF92EF92FF920F9310
:102A90001F93CF93DF936C017A018B01C0E0D0E0EC
:102AA000CE15DF0581F0D8016D918D01D601ED9134
:102AB000FC910190F081E02DC6010995892B11F060
:102AC0002196EECF7E01C701DF91CF911F910F912B
:102AD000FF90EF90DF90CF900895EDEDF4E08181CD
:102AE0008083E3EEF4E08081818308959091C100BA
:102AF000892F807194FF0EC09091DD048091DE04D7
:102B0000981302C080E00895E091DE04F0E0E35AFB
:102B1000FB4F80810895089580E00895E091570269
:102B2000F0915802CF01019690935802809357027A
:102B30006083E0915702F0915802108281E090E0AA
:102B40000895089580E090E008950E94C4381F928F
:102B50000F920FB60F9211242F938F939F93EF93A1
:102B6000FF9380916F008B7F80936F008091810035
:102B70008F7B8093810080913B0520913A052058FE
:102B800090913905893020F49695922B8F5FFACF7A
:102B900090933905809138058F5F8F7320913705A9
:102BA000821739F0E82FF0E0E950FB4F90838093D3
:102BB000380510923B05809181008F7B80938100C6
:102BC00010923A05FF91EF919F918F912F910F9065
:102BD0000FBE0F901F9018951F920F920FB60F9275
:102BE00011242F933F934F936F937F938F939F93D2
:102BF000EF93FF93209186003091870040913A0532
:102C000080918100442331F08F7B8093810010926A
:102C10003A0506C080648093810080E880933A057D
:102C200090913B05911115C041114AC030938B0022
:102C300020938A0084E086BB80916F00846080933B
:102C40006F003093F6042093F50481E080933B05F8
:102C500037C06091F5047091F60480913905409178
:102C60003A05261B370B37FD27C08695842B9F5FBF
:102C70009930C8F38093390580916F008B7F8093E2
:102C80006F00809138058F5F8F739091370589179A
:102C900049F0E82FF0E090913905E950FB4F90831F
:102CA00080933805809181008F7B80938100109202
:102CB0003A0510923B0504C08093390590933B057B
:102CC000FF91EF919F918F917F916F914F913F91E4
:102CD0002F910F900FBE0F901F9018951F920F927B
:102CE0000FB60F9211242F933F934F935F938F93BF
:102CF0009F93EF93FF938091F4042091F30440910C
:102D00008800509189009091F2048A30E8F489306B
:102D100019F0322F317001C031E026958F5F3917DD
:102D2000A1F390918000332311F0906C02C09F7B3F
:102D3000906890938000509389004093880030936E
:102D4000F2042093F30440C0E091F1049091F00468
:102D5000E91317C08A3041F48BE08093F404509358
:102D600089004093880032C01092F4048091800062
:102D70008F738093800080916F008D7F80936F00B0
:102D800025C0EF5FE770E093F104F0E0E851FB4FFE
:102D900090819093F3041092F204909180009F7BB5
:102DA0009068909380008A3029F450938900409372
:102DB000880009C08091840090918500409690938E
:102DC00089008093880081E08093F404FF91EF9163
:102DD0009F918F915F914F913F912F910F900FBED7
:102DE0000F901F90189508959091C10094FF15C001
:102DF0009091E3049F5F93702091E4049217E1F3B4
:102E0000E091E304F0E0E152FB4F80839093E30410
:102E10008091C10080628093C1000895862F0E9436
:102E2000F41681E090E008959091E4048091E30429
:102E30009813FACF08959091C100892F807194FF63
:102E400014C09091DD048091DE04981302C080E0EC
:102E50000895E091DE04F0E0E35AFB4F8081909109
:102E6000DE049F5F9F779093DE0408950C941B17F8
:102E70009091C100892F807194FF06C08091DD047C
:102E80009091DE04891B8F7708950C9438179B016D
:102E9000AC018091C10084FD1092C1001092E40445
:102EA0001092E3041092DE041092DD042115310526
:102EB00041055105D1F082E08093C00060E874E8DC
:102EC0008EE190E00E947D38DA01C9010197A109E5
:102ED000B109AC01BD017695679557954795852F4A
:102EE00099278093C5004093C40088E98093C1006E
:102EF00086E08093C2000895DC01ED91FC91019081
:102F0000F081E02D09940F931F93FC0181E0008173
:102F10001181228133814091890250918A0260910E
:102F20008B0270918C02401751076207730708F4F7
:102F300080E01F910F9108959B014091890250916B
:102F40008A0260918B0270918C02420F531F611DA7
:102F5000711DFC01408351836283738308950F9335
:102F60001F93FC0180819181A281B3810097A1050B
:102F7000B105A9F00091890210918A0220918B027B
:102F800030918C02081B190B2A0B3B0BAB0160E044
:102F900070E081E0401751076207730708F080E096
:102FA0001F910F9108958F929F92AF92BF92CF92EF
:102FB000DF92EF92FF920F931F93CF93DF938C01D9
:102FC000EB01FC0180819181A281B381C880D9800D
:102FD000EA80FB80BC01CD016C197D098E099F0937
:102FE00097FF07C090958095709561957F4F8F4FA3
:102FF0009F4F24E630E040E050E00E949F38690196
:103000007A01F80184819581A681B7810C811D81A7
:103010002E813F81BC01CD01601B710B820B930B94
:1030200097FF07C090958095709561957F4F8F4F62
:103030009F4F24E630E040E050E00E949F38490175
:103040005A01A7019601C701B6010E9439386B01E8
:103050007C01A5019401C501B4010E943938AB017E
:10306000BC014C0D5D1D6E1D7F1DE0E1F0E080E0B8
:1030700090E820E030E8889F6001899FD00CD00C58
:103080001124E12CF12C4C155D056E057F0510F423
:103090008227932736952795319781F4BC0180E0EC
:1030A00090E0DF91CF911F910F91FF90EF90DF9013
:1030B000CF90BF90AF909F908F900895822B932BCD
:1030C000DACFCF93DF93EC0161E08CE00E94B2266F
:1030D000209771F02C9A8091540290E00E94522720
:1030E0002C988091540290E00E9452272197F0CFB3
:1030F00060E08CE0DF91CF910C94B226CF92DF920A
:10310000EF92FF92CF93DF936A017B01E9010E9466
:10311000DD224AE0C701B6010E947622CE01DF918E
:10312000CF91FF90EF90DF90CF900C94DD226091D3
:103130005A0170915B0180915C0190915D010C944A
:103140005B271092550260E085E00E94E31D0E941B
:10315000971886E20E94D11D8093E70480E00E94C8
:10316000C41DA8950895CF93DF930E94A118809164
:1031700055028823B1F0C0915C04D4E680915502D9
:10318000811117C08091E704873498F4C23258F057
:103190008C2F90E0819795958795843628F083E66B
:1031A00003C080E001C081E080935E02DF91CF9197
:1031B00008950E94A1180E949718D150F9F6E6CF01
:1031C000CF93C82F0E94B318882321F081E0809309
:1031D000770209C0CC2339F0C150A1F382EC91E011
:1031E0000E94EB1FEFCFCF910895CF9361E082E172
:1031F0000E94B226CDEFC33018F483E393E002C0FF
:1032000081E191E00E94611880E00E94E0188091C5
:103210005E02811103C0CF5FC63069F760E082E1D2
:10322000CF910C94B2265D9A0E94811D5D980895FD
:103230006091560288E0689FB0011124739548E0C0
:103240008CE692E00E94BA21809156028F5F803610
:1032500018F48093560202C01092560260915602F2
:1032600088E0689FB0011124739548E08AE191E0FD
:103270000E94BA21109279020895FC018081918107
:10328000A281B3818F3F9F4FAF4FBF4F61F081E06D
:1032900044815581668177814F3F5F4F6F4F7F4FEC
:1032A00019F080E0089581E008950F931F9382E262
:1032B00091E00E943D19811112C06CE672E082E239
:1032C00091E00E94D31720919E0130919F018901C6
:1032D00020E030E06017710782079307E0F08091EB
:1032E000320190913301A0913401B0913501892BC5
:1032F0008A2B8B2B81F08091890290918A02A09178
:103300008B02B0918C0280935F0290936002A09335
:103310006102B093620280916400886080936400CF
:103320001F910F910895EF92FF921F93CF93DF9318
:103330008FEF9FEF9093E6048093E5048AE2E82EF6
:1033400081E0F82EC4E0D0E0F70111917F01612FF8
:10335000CE010E94DB3765EE74E0812F0E940021D0
:103360002196C83ED10581F742E060E070E085EE2D
:1033700094E00E94BA2187E390E09093E604809362
:10338000E50442E062E070E085EE94E00E94BA213C
:1033900080EC97E20E94DD220E94D922DF91CF913A
:1033A0001F91FF90EF900C9414170F931F93CF93DE
:1033B000DF9300D000D0CDB7DEB742E062E070E02E
:1033C000CE0103960E94D3218B819C81C797A1F5E2
:1033D0008FEF9FEF9093E6048093E50484EE90E0F6
:1033E0009C838B83CE0101969A83898304E010E04D
:1033F0008B819C81892B79F0C8010E94D33765EEBF
:1034000074E00E9400218B819C8101979C838B83B7
:103410000F5F1F4FEDCF42E060E070E0CE010396FA
:103420000E94D32181E04B815C812091E5043091A1
:10343000E6044217530709F080E00F900F900F90B9
:103440000F90DF91CF911F910F9108958F929F92CE
:10345000AF92BF92CF92DF92EF92FF92CF93DF9322
:103460006B017C0197FF0DC06DE289E495E00E943D
:103470008E15F094E094D094C094C11CD11CE11C32
:10348000F11C80E8882E86E9982E88E9A82EB12CB8
:10349000C701B601A50194010E949F38E90160E8C7
:1034A00079E687E69FEF0E9439389B01AC012C0D2D
:1034B0003D1D4E1D5F1DA0E1B7E20E94E937A50149
:1034C00094010E947D385F934F933F932F93DF9336
:1034D000CF938CE299E29F938F9389E495E09F9339
:1034E0008F930E94EE228DB79EB70A960FB6F8947E
:1034F0009EBF0FBE8DBFDF91CF91FF90EF90DF9009
:10350000CF90BF90AF909F908F9008957F928F92B1
:103510009F92AF92BF92CF92DF92EF92FF920F9362
:103520001F93CF93DF93D82FF92EC62F80915D0282
:10353000811121C080915E02811105C080910E022F
:10354000833320F0815080930E0202C010920E024D
:1035500020910E02223348F088E790E0821B910907
:103560006AE070E00E94693801C067E089E00E946B
:10357000E31D0E946F1D10925B04809164008F7B9D
:103580008093640085E08093700083E28093B000B4
:1035900081E08093B1001092B40082E085BB8091FD
:1035A0006E00826080936E00C1110BC00D2F1F2D25
:1035B000E12CF12C5CED852E55E0952EA12CB12C43
:1035C00019C084E690E00E94E61C0E94691D0E94DA
:1035D000691DC150E9CFC33209F04CC084E690E0C8
:1035E0000E94E61C0E94691D84E690E00E94E61C91
:1035F0000E946F1D60918A0170918B0180918C01F6
:1036000090918D010E945B27F801C1918F01CC231D
:1036100009F457C00E94131980ED8C0F8A30D8F638
:1036200090E0880F991FFC01E455F84DC591D491A5
:10363000FC01E856F84DC590D49020918A01309154
:103640008B0140918C0150918D01ACEDB0E00E9456
:10365000E937605E7C448B4F9F4FA50194010E9427
:103660007D38369527953695279520935A041092E4
:10367000590409C0CE3209F4B7CFCA3209F0B8CF25
:1036800084EF91E0B3CF809159048823E1F3CC0E0D
:10369000DD1ECC15DD0509F4ADCFFE017490B70138
:1036A000872D0E941D1D7C010E94D81CB701872D0B
:1036B00082958F700E941D1D7C010E94D81C21964E
:1036C000E8CF80916E008D7F80936E001092700025
:1036D0001092B0001092B1002C9880916400806428
:1036E0008093640080E0DF91CF911F910F91FF9054
:1036F000EF90DF90CF90BF90AF909F908F907F9092
:103700000C94C41D811106C08091720180FD02C01D
:1037100083FF0BC080917402811102C063E001C07D
:1037200060E080E091E00C94861A08951F920F9259
:103730000FB60F9211248F93EF93FF930FB6F89467
:10374000A89580916000886180936000109260006D
:103750000FBEA895E0E6F0E080818F7B8083FF912B
:10376000EF918F910F900FBE0F901F901895EAE781
:10377000F0E080818068808380818B7F808380817E
:10378000866080830C947B1DCF92DF92EF92FF9234
:10379000CF930E94B71BC0E4C12CD12C760183E1EA
:1037A0000E943B27092E000CAA0BBB0BC80ED91E8A
:1037B000EA1EFB1E0E94811DC15089F7A0EAB1E0FC
:1037C000A70196010E94E93720EC3CE040E050E080
:1037D0000E947D3821388CE038074105510540F5BD
:1037E0008EE480937C000E94811DC4E6C12CD12C04
:1037F00076010E94811D80917A00806480937A0016
:1038000080917A0086FDFCCF80917800209179002C
:1038100090E0922BC80ED91EE11CF11CC15049F753
:103820006BE173E682E197E0A70196010E947D3883
:10383000C901CF91FF90EF90DF90CF90089598E06D
:103840002D98000087FF02C0439A01C043980000F2
:103850002D9A0000880F915099F72D980895419A5C
:103860002D9841980C941F1C0F931F93CF93DF93B7
:1038700095B7906295BF95B7906495BF14BE90912F
:103880006000977F9093600090ED9093600083FDBF
:1038900002C098E001C098E28770982B88E10FB6CB
:1038A000F894A895809360000FBE90936000A8954F
:1038B0008091600080648093600083B7817F682B73
:1038C00063BF9FB7F8942FB3FB983DB31DBA4091E7
:1038D0006B0010926B0050916C0010926C00609124
:1038E0006D0010926D0070916E0010926E00E0916C
:1038F0006F0010926F00F091700010927000ACB5E4
:103900008CB58F778CBDB091C1008091C1008F7153
:103910008093C100C091BC008091BC008E7F8093D9
:10392000BC00D0B780B7877F80BF10917A008091AC
:103930007A00877F80937A0007B787B78F7787BF32
:10394000789483B7816083BF889583B78E7F83BF68
:103950000FB6F894A895809160008861809360000C
:10396000109260000FBE07BF10937A00D0BFC093C3
:10397000BC00B093C100ACBDF0937000E0936F0049
:1039800070936E0060936D0050936C0040936B00D9
:103990003DBB2FBB9FBF809160008F7B80936000F9
:1039A000DF91CF911F910F91089564E00C94341C26
:1039B0006CE771E00E946938605660934005109290
:1039C0005904809159048823E1F3089522E3209358
:1039D0005A0421E020933F05BC0180E090E00E9462
:1039E0005B2710923F0508951F920F920FB60F921A
:1039F00011248F939F9396B580915A04890F87BDA8
:103A000080913F05882359F080913E058F5F809318
:103A10003E0580FD02C080ED04C080E302C08091BD
:103A200040058093B40081E0809359049F918F9169
:103A30000F900FBE0F901F9018957058A0915B04C7
:103A4000B0E0FD01EE0FFF1FE55EF74D459154918B
:103A500082FF02C09A0102C020E030E056954795EF
:103A600081FF02C0240F351F5695479580FF02C085
:103A7000240F351F56954795240F351F83FF08C027
:103A80002617370770F4AB01421B530B9A010EC087
:103A9000AB01409550952417350730F4260F371F9A
:103AA00005C020E030E002C02FEF3FEF982F977065
:103AB000E92FF0E0ED5EF74DE491AE0FB11DA935B1
:103AC000B10514F0A8E5B0E0A0935B04C9019058DB
:103AD000089562E370E080E090E00C945B270E9420
:103AE000691D0E94691D0E94691D0E94691D0E9436
:103AF000691D0C94691D6AE070E080E090E00C9410
:103B00005B2761E070E080E090E00C945B27CF924F
:103B1000DF92EF92FF92CF93DF937B019C0140E015
:103B200050E060E271EA87E090E00E949F38E9018E
:103B30000E9495279B01AC012E0D3F1D411D511D7B
:103B400069017A010E9495276C157D058E059F05F8
:103B500048F4439ACE010E9452274398CE010E9416
:103B60005227F0CFDF91CF91FF90EF90DF90CF9071
:103B70000895CF93C62F80680E942F1C8C2F0E941F
:103B80001F1C419ACF91089590918802911102C013
:103B9000882321F060E087E00E94B91D109288021E
:103BA00008958F770E942F1C2D9898E080E02D9A21
:103BB000000026B1880F2170822B2D9800009150B3
:103BC000B1F7419A08956F927F928F929F92AF9230
:103BD000BF92CF92DF92EF92FF920F931F93CF93FA
:103BE000DF93182F062F8091880281115EC10E94F9
:103BF000D11DC82F83E20E94F41687E492E00E9450
:103C0000B0268FE392E00E94B0268C2F0E949F2660
:103C10000E94141781E00E94D11DC82F83E20E94E8
:103C2000F41687E492E00E94B0268FE392E00E94AF
:103C3000B0268C2F0E949F260E94141782E00E94BB
:103C4000D11DC82F83E20E94F41687E492E00E94FF
:103C5000B0268FE392E00E94B0268C2F0E949F2610
:103C60000E9414178BE10E94D11DC82F83E20E948D
:103C7000F41687E492E00E94B0268FE392E00E945F
:103C8000B0268C2F0E949F260E94141783E00E946A
:103C9000D11DC82F83E20E94F41687E492E00E94AF
:103CA000B0268FE392E00E94B0268C2F0E949F26C0
:103CB0000E94141784E00E94D11DC82F83E20E9445
:103CC000F41687E492E00E94B0268FE392E00E940F
:103CD000B0268C2F0E949F260E941417CEEDD7E2AB
:103CE000FE018491882331F02296319664910E94DE
:103CF000B91DF6CF60912E0189E00E94B91D809117
:103D00008E0190918F01A0919001B0919101883E18
:103D10009340A105B10530F061EC8CE10E94B91D22
:103D2000C4E005C061ED8CE10E94B91DC5E0809042
:103D30008E0190908F01A0909001B0909101D0E001
:103D4000CE010297A501940104C0220F331F441F26
:103D5000551F8A95D2F760E673EE86E190E00E94E7
:103D60007D3869017A012E96C501B40104C0660F41
:103D7000771F881F991FCA95D2F727EC3DE240E0D4
:103D800050E00E947D3849015A016C2D80E20E946A
:103D9000B91DD701C60188279770AA27BB2743E022
:103DA000B695A795979587954A95D1F7682F6A2973
:103DB00081E20E94B91D99278B2D7A2D692D82E20F
:103DC0000E94B91D682D83E20E94B91D60E070E871
:103DD00080E090E0A70196010E947D38E9012296DB
:103DE0006D2F677084E20E94B91D6C2F85E20E94DE
:103DF000B91DC0902A01D0902B01E0902C01F090C9
:103E00002D01C11488E3D8068CE9E8068CE1F80698
:103E100060F022E0622E812C3DE2932E31E3A32E4E
:103E2000BB24B394772473940AC084E0682E90E88E
:103E3000892E96E9992E98E9A92EB12C712CC701EB
:103E4000B601A50194010E947D38E9016897C5017A
:103E5000B4010E943938A7019601261B370B480B85
:103E6000590BA62DB0E00E94E93721E732E040E08F
:103E700050E00E947D38F22EE32E711002C080E4E3
:103E800001C080E66C2F6F71682B85E70E94B91D19
:103E90006E2D86E70E94B91D6F2D87E70E94B91D20
:103EA00081E0809388020E94691D602F8DE60E9448
:103EB000B91D612F87E00E94B91DDF91CF911F913D
:103EC0000F91FF90EF90DF90CF90BF90AF909F90B9
:103ED0008F907F906F900C947B1D67E089E00E942B
:103EE000E31D68E572E084EF91E00E94871D64E0C5
:103EF00089E00E94E31D68E572E08AEF90E00E948D
:103F0000871D60E089E00E94E31D68E572E080EAB9
:103F100090E00E94871D80E00C94C41D1F920F92B8
:103F20000FB60F9211242F933F934F935F936F938C
:103F30007F938F939F93AF93BF93EF93FF93CF9311
:103F4000DF931F92CDB7DEB783E00E94D11D898336
:103F500084E00E94D11D8983898186FF08C081E0A9
:103F60008093550286E20E94D11D80935C040F90DD
:103F7000DF91CF91FF91EF91BF91AF919F918F9181
:103F80007F916F915F914F913F912F910F900FBE55
:103F90000F901F9018951F920F920FB60F92112439
:103FA0008F9380915D0281112C988F910F900FBE9D
:103FB0000F901F9018951F920F920FB60F92112419
:103FC0008F9380915D0281112C9A8F910F900FBE7B
:103FD0000F901F9018954F925F926F927F928F92E1
:103FE0009F92AF92BF92CF92DF92EF92FF920F9388
:103FF0001F93CF93DF9340918D0250918E02609179
:104000008F0270919002480F591F611D711D4093DE
:104010008D0250938E0260938F02709390029C01E8
:10402000A8EEB3E00E94F4374B015C01709064008D
:1040300080916400877F809364006090810080910C
:104040008100887F8093810050908000E090840000
:10405000F0908500C0908800D0908900C0918A00BF
:10406000D0918B00009186001091870040906F00E6
:1040700010928000109281001092850010928400AE
:1040800010926F0083E08093810060E080E00E94E6
:10409000341C209184003091850010928100409260
:1040A0006F001093870000938600D0938B00C0931D
:1040B0008A00D0928900C0928800F0928500E09238
:1040C000840050928000609281007092640093E0BE
:1040D000220F331F9A95E1F730933D0520933C055D
:1040E00040E050E082169306A406B50608F460C0CE
:1040F000C501B401621B730B840B950B0E947D38C4
:1041000069017A01E901C11582E0D80728F089E048
:104110000E94D51CD250F7CFA601452F55274695B2
:1041200020E03EEF429FC001439F900D529F900DB3
:104130001124C80ED91ED0FE03C088E00E94D51CF1
:10414000C7FE03C087E00E94D51CC6FE03C086E000
:104150000E94D51CC5FE03C085E00E94D51CC4FE8C
:1041600003C084E00E94D51CC3FE03C083E00E940C
:10417000D51CC2FE03C082E00E94D51CC1FE03C054
:1041800081E00E94D51CC0FE13C080E0DF91CF917A
:104190001F910F91FF90EF90DF90CF90BF90AF9065
:1041A0009F908F907F906F905F904F900C94D51C54
:1041B000DF91CF911F910F91FF90EF90DF90CF9003
:1041C000BF90AF909F908F907F906F905F904F9037
:1041D00008950F931F93CF93DF93EC018B010E94FF
:1041E0009527DC01CB01800F911FA11DB11D888394
:1041F0009983AA83BB83DF91CF911F910F9108957B
:10420000FB012081822790E1899F900111242827BA
:10421000822F90E0582F44279C0163E0220F331F28
:104220006A95E1F742275327218130E0242735277B
:1042300074E0959587957A95E1F782279327918386
:10424000808308959C01862FB9010C940021AF92C0
:10425000BF92CF92DF92EF92FF920F931F93CF9373
:10426000DF9384ED97E20E94DD220E94D9220E9412
:10427000141781E080938002809168029091690216
:10428000A0916A02B0916B02409164025091650264
:104290006091660270916702841B950BA60BB70BA9
:1042A0008D3B9240A105B10584F10E9495276B01D9
:1042B0007C0120EDC20E27E0D21EE11CF11CE9EFCB
:1042C000F8E21491E5EEF8E2E491F0E0EE0FFF1F62
:1042D000E952F74DC591D4919CE9A92E9FE0B92EE2
:1042E000012F00950E9495276C157D058E059F0571
:1042F00060F48881812B8883C5010197F1F788815B
:10430000802388830E947B1DEDCFDF91CF911F9189
:104310000F91FF90EF90DF90CF90BF90AF900895F6
:1043200080918402811103C01092630208958091EC
:10433000800281111EC04091590250915A02609131
:104340005B0270915C028091680290916902A09179
:104350006A02B0916B02481759076A077B0724F37A
:10436000809163028F5F809363028A3110F00C9416
:1043700027210895EF92FF921F93CF93DF93EB01D4
:10438000142F7C01112349F0F70161917F01CE01C7
:104390000E94DB3711502196F5CFDF91CF911F910D
:1043A000FF90EF900895EF92FF921F93CF93DF93CA
:1043B000142FEC017B01E81AF90A112341F0C7011F
:1043C0008C0F9D1F0E94D33789931150F6CFDF9138
:1043D000CF911F91FF90EF9008951F920F920FB60B
:1043E0000F9211248F939F93EF93FF939091E40486
:1043F0008091E304981779F0E091E404F0E0E15251
:10440000FB4F80818093C6008091E4048F5F8370AE
:104410008093E40405C08091C1008F7D8093C1002A
:10442000FF91EF919F918F910F900FBE0F901F9072
:1044300018951F920F920FB60F9211242F938F93FE
:104440009F93EF93FF939091C6008091DD048F5F5F
:104450008F772091DE04821741F0E091DD04F0E0D7
:10446000E35AFB4F90838093DD04FF91EF919F917E
:104470008F912F910F900FBE0F901F9018953FB7FF
:10448000F8948091450590914605A0914705B0911B
:10449000480526B5A89B05C02F3F19F00196A11D20
:1044A000B11D3FBFBA2FA92F982F8827820F911DCA
:1044B000A11DB11DBC01CD0143E0660F771F881F10
:1044C000991F4A95D1F70895009769F0FC01019072
:1044D0000020E9F73197AF01481B590BBC018DE46F
:1044E00095E00C94431580E090E008958F929F92A0
:1044F000AF92BF920F931F93CF93DF93CDB7DEB7E9
:10450000A1970FB6F894DEBF0FBECDBF19A24230FF
:1045100008F44AE08E010F5D1F4F842E912CA12CD0
:10452000B12CA50194010E947D38E62FB901CA0182
:1045300001501109EA3014F4E05D01C0E95CD801D2
:10454000EC93232B242B252B61F7C8010E946422B6
:10455000A1960FB6F894DEBF0FBECDBFDF91CF910D
:104560001F910F91BF90AF909F908F900895CF9221
:10457000DF92EF92FF9297FF15C06B017C018DE2F5
:104580000E94F41666277727CB016C197D098E09E6
:104590009F094AE00E9476220196FF90EF90DF90FB
:1045A000CF9008954AE0FF90EF90DF90CF900C9469
:1045B000762281E592E00C946422CF93DF93FC0194
:1045C0006491EC012196662331F08DE495E00E9420
:1045D0007C17CE01F4CFDF91CF9108952F923F92B7
:1045E0004F925F926F927F928F929F92AF92BF9203
:1045F000CF92DF92EF92FF920F931F93CF93DF93AF
:10460000CDB7DEB72F970FB6F894DEBF0FBECDBF84
:104610007E0128E2E20EF11C3CE2632E39E2732EA9
:1046200022242394CE0101965C01F30120FC059124
:1046300020FE01913F01002309F468C3053241F4D3
:1046400020FC059120FE01913F01053281F407C055
:104650000A3029F46DE089E495E00E947C17602F10
:1046600089E495E00E947C1767017601DECF10E0B7
:10467000512C912C9FE19915E0F00B3289F040F418
:10468000003289F00332A9F4892D8061982E38C058
:104690000D3261F0003369F4E92DE1609E2E30C0E7
:1046A000F92DF2609F2E292D246020C0392D38600D
:1046B00023C097FC2DC080ED800F8A3088F496FED1
:1046C00006C09AE0199F800D1124182F19C0EAE046
:1046D0005E9E800D1124582EF92DF0629F2E10C081
:1046E0000E3231F496FC12C3292D2064922E08C09C
:1046F0000C3621F4392D3068932E02C0083641F46F
:10470000F30120FC059120FE01913F010111B2CF80
:104710008BEB800F833020F4892D8061005E07C011
:104720008BE9800F833008F061C1892D8F7E86FF71
:1047300016E08F73982E053611F4806403C0063698
:1047400019F48068982E02C01111115097FE06C00E
:104750001C3350F444244394410E08C0183040F0F8
:10476000412C27E017E006C02CE3422E27E002C0D0
:10477000212F412C670194E0C90ED11CF701608103
:10478000718182819381042DA5010E94EB277C0118
:10479000398030FE02C033FE06C091FC06C092FE96
:1047A00006C000E205C00DE203C00BE201C000E05C
:1047B000832D8C7019F0011173C277C297FE0FC060
:1047C0004E0C34FE04C08A81813309F44A941414D7
:1047D00074F5F8E0F41578F598E0492E2CC096FCB5
:1047E0002AC0812F90E08E159F0544F02CEFE21631
:1047F0002FEFF2061CF0392D3068932E112359F05B
:10480000E2E0F0E0EC0FFD1FE10FF11D808180334D
:1048100011F41150F3CF97FE0EC044244394410E7F
:10482000812F90E0E816F9062CF41E1904C04424E8
:10483000439401C010E097FE06C01E141F0434F418
:10484000C701019605C085E090E002C081E090E0DC
:1048500001110196112331F0212F30E02F5F3F4FDE
:10486000820F931F252D30E08217930714F4581AF6
:1048700001C0512C892D897049F4552039F060E22E
:1048800089E495E00E947C175A94F7CF002329F021
:10489000602F89E495E00E947C1793FC09C05520A5
:1048A00039F060E389E495E00E947C175A94F7CFD1
:1048B00097FE4CC04701F7FE02C0812C912CC70126
:1048C00088199909F501E80FF91FFD87EC87970111
:1048D000241931093F872E87012F10E0119501958A
:1048E00011093FEF8316930629F46EE289E495E0FF
:1048F0000E947C17E814F9044CF08E859F8588157A
:10490000990524F4EC85FD85618101C060E3F1E047
:104910008F1A91082C853D852F5F3F4F3D872C874F
:10492000801691062CF089E495E00E947C17D9CF7F
:10493000E814F90409F055C08A81863328F48533D8
:1049400009F04FC034FC4DC061E34BC06A81613354
:1049500019F0332D3F7E332E89E495E00E947C17B9
:10496000111104C094FC17C065E616C06EE289E41C
:1049700095E00E947C171E5F82E001E0080FF501C0
:10498000E80FF11D608189E495E00E947C17802F7B
:104990001013F3CFE7CF65E489E495E00E947C171C
:1049A000F7FC05C0E114F10439F434FE05C0F194BC
:1049B000E194F1086DE201C06BE289E495E00E94A8
:1049C0007C1760E38AE0E816F1042CF06F5F9AE050
:1049D000E91AF108F7CF89E495E00E947C1760E3BB
:1049E0006E0D89E495E00E947C1750C1033631F0CA
:1049F000033779F0033509F060C023C06701E2E0B6
:104A0000CE0ED11CF7018081898301E010E0750191
:104A100015C06701F2E0CF0ED11CF701E080F180F4
:104A2000E114F104C1F096FE03C0612F70E002C0F2
:104A30006FEF7FEFC7010E94F5368C01F92DFF77EC
:104A40001BC0670122E0C20ED11CF701E080F1809B
:104A5000E114F10421F48DE1E82E89E2F82E96FEAE
:104A600003C0612F70E002C06FEF7FEFC7010E94AB
:104A7000EA368C01F92DF0689F2EF3FD1AC0852DC2
:104A800090E008171907A8F460E289E495E00E9415
:104A90007C175A94F4CFF70197FC659197FE6191CA
:104AA0007F0189E495E00E947C1751105A940150CF
:104AB00011090115110579F7E9C0043611F009361D
:104AC00061F5670197FE09C024E0C20ED11CF70111
:104AD00060817181828193810AC0F2E0CF0ED11C86
:104AE000F70160817181072E000C880B990BF92D5D
:104AF000FF769F2E97FF09C09095809570956195E0
:104B00007F4F8F4F9F4FF0689F2E2AE030E0A50126
:104B10000E94C328E82EEA1849C0053731F4292D30
:104B20002F7E822E2AE030E025C0392D397F832E5A
:104B30000F36C1F018F4083579F0E8C0003719F0E5
:104B4000083721F0E3C0832F8061882E84FE0DC0DA
:104B5000982D9460892E09C094FE0AC0E32FE66068
:104B60008E2E06C028E030E005C020E130E002C013
:104B700020E132E0670187FE09C0F4E0CF0ED11CCE
:104B8000F701608171818281938108C0F2E0CF0ECC
:104B9000D11CF7016081718180E090E0A5010E9445
:104BA000C328E82EEA18F82DFF779F2E96FE0BC03B
:104BB000092D0E7FE11650F494FE0AC092FC08C045
:104BC000092D0E7E05C0FE2C092D03C0FE2C01C050
:104BD000F12E04FF0DC0FE01EE0DF11D808180332A
:104BE00011F4097E09C002FF06C0F394F39404C0D7
:104BF000802F867809F0F39403FD11C000FF06C0F2
:104C0000F51488F4152D1E0D1F190EC0F51460F44F
:104C100060E289E495E00E947C17F394F7CFF514E5
:104C200018F45F1802C01E2D512C04FF0DC060E364
:104C300089E495E00E947C1702FF14C001FD02C0C8
:104C400068E70CC068E50AC0802F867859F001FF3C
:104C500002C06BE201C060E207FD6DE289E495E00D
:104C60000E947C17E11638F460E389E495E00E9425
:104C70007C171150F7CFEA94F501EE0DF11D60811C
:104C800089E495E00E947C17E110F5CF552009F4E6
:104C9000ECCC60E289E495E00E947C175A94F6CF50
:104CA00024E0251578F584E004C033E0351560F57F
:104CB00083E0581A93FC08C060E289E495E00E9402
:104CC0007C175A945110F8CF002329F0602F89E403
:104CD00095E00E947C1733FE03C004E219E202C093
:104CE00008E219E2F92DF0719F2EF8016491662314
:104CF00069F29110605289E495E00E947C170F5F81
:104D00001F4FF3CF512CE2CF512CE5CF2F960FB68A
:104D1000F894DEBF0FBECDBFDF91CF911F910F91F1
:104D2000FF90EF90DF90CF90BF90AF909F908F90CB
:104D30007F906F905F904F903F902F900895CF930A
:104D4000DF93682F70E080E090E04AE00E947622D6
:104D5000EC010E94D9228C0F9D1FDF91CF91089505
:104D60000C94642290E0FC01E75FF64D2491FC0175
:104D7000EB50F74D3491FC01EF51F74DE491EE23E8
:104D800009F43CC0222339F1233091F038F421306A
:104D9000A9F0223001F584B58F7D12C0273091F043
:104DA0002830A1F02430B9F4809180008F7D03C0B9
:104DB000809180008F77809380000DC084B58F77BD
:104DC00084BD09C08091B0008F7703C08091B0008E
:104DD0008F7D8093B000F0E0EE0FFF1FE952F74D9A
:104DE000A591B4919FB7F894611104C08C9130954E
:104DF000382302C0EC913E2B3C939FBF0895CF9384
:104E0000DF9390E0FC01EB50F74D2491FC01EF5152
:104E1000F74D8491882361F190E0880F991FFC0180
:104E2000E353F74DC591D491FC01E952F74DA5919B
:104E3000B491611109C09FB7F894888120958223AD
:104E40008883EC912E230BC0623061F49FB7F894F5
:104E50008881322F309583238883EC912E2B2C93DD
:104E60009FBF06C08FB7F894E8812E2B28838FBF91
:104E7000DF91CF9108958E3008F08E508770806456
:104E800080937C0080917A00806480937A00809186
:104E90007A0086FDFCCF809178002091790090E027
:104EA000922B08958330910528F0880F991F04975D
:104EB0000197F1F708958F929F92AF92BF92CF9290
:104EC000DF92EF92FF926B017C010E943F224B0127
:104ED0005C01C114D104E104F104F1F00E943F220D
:104EE000DC01CB0188199909AA09BB09883E9340C6
:104EF000A105B10570F321E0C21AD108E108F1085B
:104F000088EE880E83E0981EA11CB11CC114D10448
:104F1000E104F10419F7DDCFFF90EF90DF90CF901F
:104F2000BF90AF909F908F9008952FB7F8946091A5
:104F300041057091420580914305909144052FBF32
:104F400008951F920F920FB60F9211242F933F9343
:104F50008F939F93AF93BF938091410590914205AA
:104F6000A0914305B09144053091510526E0230FEF
:104F70002D3720F40296A11DB11D05C029E8230F8D
:104F80000396A11DB11D2093510580934105909377
:104F90004205A0934305B093440580914505909147
:104FA0004605A0914705B09148050196A11DB11D88
:104FB0008093450590934605A0934705B093480517
:104FC000BF91AF919F918F913F912F910F900FBE05
:104FD0000F901F901895283008F027E03327DA014A
:104FE000990F311D87FD916000966105710539F4B7
:104FF00032602E5F3D9330E32A95E1F708959F3F9D
:1050000030F080387105610509F03C5F3C5F3D93ED
:10501000913008F08068911DDF93CF931F930F9319
:10502000FF92EF92192F987F9695E92F9695969576
:10503000E90FFF27E157F64D99273327EE24FF2488
:10504000A701E70105900894079428F4360FE71E9E
:10505000F81E491F511D660F771F881F991F069460
:10506000A1F70590079428F4E70EF81E491F561F74
:10507000C11D770F881F991F661F0694A1F7059021
:10508000079428F4F80E491F561FC71FD11D880F1B
:10509000991F661F771F0694A1F70590079420F4C7
:1050A000490F561FC71FD81F990F661F771F881FEC
:1050B0000694A9F784911095177041F0D695C7957D
:1050C00057954795F794E7941A95C1F7E5E3F9E208
:1050D00068941590159135916591959105907FE2B1
:1050E0007395E118F10A430B560BC90BD009C0F7B1
:1050F000E10CF11E431F561FC91FD01D7EF47033F3
:1051000011F48A95E6CFE894015030F0080F0AF4C4
:105110000027021708F4202F2395022F7A3328F056
:1051200079E37D932A95E9F710C07D932A9589F656
:10513000069497956795379517951794E118F10A96
:10514000430B560BC90BD00998F023957E917395AC
:105150007A3308F070E37C932013B8F77E91706186
:105160007D9330F0839571E37D9370E32A95E1F7A9
:105170001124EF90FF900F911F91CF91DF9199270C
:1051800087FD90950895FA01AA27283051F1203122
:1051900081F1E8946F936E7F6E5F7F4F8F4F9F4FCB
:1051A000AF4FB1E03ED0B4E03CD0670F781F891F0D
:1051B0009A1FA11D680F791F8A1F911DA11D6A0FDB
:1051C000711D811D911DA11D20D009F468943F918E
:1051D0002AE0269F11243019305D3193DEF6CF018D
:1051E0000895462F4770405D4193B3E00FD0C9F753
:1051F000F6CF462F4F70405D4A3318F0495D31FDC0
:105200004052419302D0A9F7EACFB4E0A695979512
:10521000879577956795BA95C9F7009761057105E8
:1052200008959B01AC010A2E069457954795379532
:105230002795BA95C9F7620F731F841F951FA01D8C
:105240000895CF92DF92EF92FF920F931F93E82F72
:10525000F92F05C0015011092109310961F190812F
:1052600096239417B9F305C001501109210931099A
:1052700011F1908196239413F7CFC12CD12CE12CFE
:10528000F12C0AC08FEFC81AD80AE80AF80A0C15E0
:105290001D052E053F0579F080818623841791F343
:1052A0006C2D7D2D8E2D9F2D1F910F91FF90EF90D6
:1052B000DF90CF90089560E070E080E090E01F9173
:1052C0000F91FF90EF90DF90CF900895CF93DF93F1
:1052D000CDB7DEB7C65ED1090FB6F894DEBF0FBEFC
:1052E000CDBF789484B5826084BD84B5816084BD6F
:1052F00085B5826085BD85B5816085BD80916E0074
:10530000816080936E0010928100809181008260A4
:1053100080938100809181008160809381008091E1
:1053200080008160809380008091B10084608093D0
:10533000B1008091B00081608093B00080917A00CC
:10534000846080937A0080917A00826080937A00F2
:1053500080917A008E7F80937A0080917A008068B5
:1053600080937A001092C1000FB6F894A8958091AE
:105370006000886180936000109260000FBE61E061
:1053800081E10E94FF2661E08DE00E94FF2660E03F
:105390008EE00E94FF2660E082E00E94FF2661E02E
:1053A0008FE00E94FF2661E085E00E94FF2661E019
:1053B00087E00E94FF2661E082E10E94FF2660E014
:1053C00082E10E94B22684B58C7F84BD8091690001
:1053D0008C7F826080936900E89A789460E071EE37
:1053E00080E090E00E94471781E00E94C41D8091F8
:1053F00076018093540261E08BE00E94FF262C9896
:1054000061E08CE00E94FF2660E08CE00E94B22602
:1054100082E390E00E94EB1F83E393E00E94611817
:105420000E94C41B8C01823B9C40A8F484E191E063
:105430000E94DD220E94D9220E9414170E94C41BE0
:105440008C01843E9C4038F40E94131982EC91E058
:105450000E94EB1FF3CF84EEEAE2F1E0DE01119649
:1054600001900D928A95E1F75F9A5D9A81EF90E045
:105470000E94DD228CEE90E00E94DD220E94D92263
:10548000D12CCC24C3940E9495274B015C0148EE9B
:10549000840E43E0941EA11CB11CF12C0E949527A0
:1054A000681579058A059B0590F40E9438178823B2
:1054B000A9F30E941B1756E05F1548F0EF2DF0E0AE
:1054C000EF50FF4FE4918E13E8CFF394E7CF87E0DE
:1054D000F81286C10E94D519811102C00E94931949
:1054E00044EE64E070E08AE291E00E94D3218BEB0D
:1054F00090E00E94DD22FAE2EF2EF1E0FF2E812CF7
:10550000912C540127EB30E0B501A40189EB90E028
:105510000E947E18F70161917191819191917F01B3
:105520000E94B7220E94D922FFEF8F1A9F0AAF0A6A
:10553000BF0A2EE182169104A104B10419F7E5EC2B
:10554000EE2EE0E0FE2E23EB30E0B501A40185EB6A
:1055500090E00E947E18F701859194910E94642248
:105560000E94D9223FEF831A930AA30AB30A43E0A9
:10557000E40EF11C54E285169104A104B10419F75C
:1055800080EB90E00E94DD22F12C0E9438178111FF
:1055900003C00E94811DF9CF0E941B178D3021F09E
:1055A000FF2061F08A3061F4EF2DF0E0E353FC4F0F
:1055B0001082E091CD03E1110DC0CCC08A3029F3F7
:1055C000EF2DF0E0E353FC4F80838FE38F15E8F27B
:1055D000F394DBCF7090CE037110BCC08E2F90E09F
:1055E000FC01E256F109E931F10508F080CFEC5CED
:1055F000FF4F0C94BE3884EEFE013196AAE2B1E072
:1056000001900D928A95E1F70E94931970CF88EE70
:1056100093E00E9461186BCF60E089E00E94E31D77
:10562000412C70E1A72E77E2B72E512C612C662D0C
:1056300089E00E94B91D0E947B1D109255025F9A5D
:1056400065E087E00E94B91D0E9497185F988091DD
:1056500055028823D1F053946AE0862E912CE12CD8
:10566000F12C65E087E00E94B91D0E94691D8BE264
:105670000E94D11DE80EF11C91E0891A910889F76A
:10568000EA14FB0414F4462C57016394E0E86E120C
:10569000CECF80E00E94C41DF0E4F51508F4742C10
:1056A000472D50E060E070E027EE30E08AEE90E0B9
:1056B0000E947E181CCFE090560228E0E29EC001B6
:1056C0001124AC01485F5E4F7A0151E6B52E48E0E7
:1056D000B70181E992E00E94D32181E992E00E9422
:1056E0003D19811119C060919102709192028091CF
:1056F0009302909194020E94B72280E20E94F416D5
:105700006091950270919602809197029091980213
:105710000E94B7220E94D92258E0E50EF11CE11444
:1057200083E0F80618F0E12CFF24F394BA94B1104A
:10573000CECFDDCEC0925D0267ED70E08DEC93E0E0
:105740000E94CB3660E08DEC93E00E94861A1092A6
:105750005D02CDCE8EEC93E00E94A436F62E94E24C
:105760009F1510F4D3948FCEEEECF3E0BF0181913E
:105770008823C1F0BF018D33C9F72DE12F15B0F09B
:105780008081882309F4B3CECF010E94A43634E08F
:10579000F39EF0011124E65DFE4F608371838283E6
:1057A0009383A5CE5DE15F1508F0A1CE82EE8F0D4B
:1057B000863009F49CCE90E0FC01EE0FFF1F8E0FA7
:1057C0009F1FFC01E953FF4F4491FC01EB53FF4F36
:1057D0008591949150E0415051090E94C93887CE7B
:1057E0000E94D519882341F044EE64E070E08AE21B
:1057F00091E00E94D32114C043E14D1518F40E949A
:1058000093190EC023E0F22E5D980E946F1D5D9AE1
:105810005F980E946F1D5F9AFA94F110F5CFA2CFA6
:105820005F985D9881E090E0A0E0B0E0809389020D
:1058300090938A02A0938B02B0938C0280913201E4
:1058400090913301A0913401B09135010097A105E9
:10585000B10561F480915F0290916002A0916102B4
:10586000B09162020197A109B10903C00196A11D7F
:10587000B11D80935F0290936002A0936102B09388
:1058800062028091560190E00196092E000CAA0B4D
:10589000BB0B80930E0490930F04A0931004B0935D
:1058A000110480914A0190E00196092E000CAA0B88
:1058B000BB0B8093120490931304A0931404B09331
:1058C0001504E0913A01F0913B01E0903601F0902F
:1058D000370120913E0130913F01409140015091AC
:1058E0004101ACE3B0E00E94E937EE15FF0549F451
:1058F000609333047093340480933504909336049A
:105900000FC09F012E193F0940E050E00E947D38F2
:105910002093330430933404409335045093360479
:1059200060E089E00E94E31D93E0F92E5D9A66E94C
:1059300070E080E991E00E94871D5D9866E970E063
:1059400080E293E00E94871DFA94F110EFCF80E08F
:105950000E94C41D8BE091E00E94DD220E94D922AA
:105960000E941417C80164E670E00E945538862F23
:105970006AE00E944938805D8093CD03905D9093EA
:10598000CE031092CF0360E08DEC93E00E94861A64
:105990001092560248E060E071E081E992E00E94D6
:1059A000D321E12CFF24F39410E058E0E50EF11C24
:1059B000E11483E0F80618F0E12CFF24F39448E0AA
:1059C000B7018BE194E00E94D32181E992E00E942B
:1059D0003D191F5F81110C946D368BE194E00E949C
:1059E0003D19882311F40C946D3688E0E1E9F2E06A
:1059F000ACE6B2E001900D928A95E1F71093560261
:105A000088E0EAE1F1E0ABE1B4E001900D928A9523
:105A1000E1F788E0EBE1F4E0A1E9B2E001900D925A
:105A20008A95E1F780915602882309F446C08AEFEF
:105A300090E00E94DD220E94D9220E94141781E08A
:105A40008093780280E091E090935802809357020F
:105A500060916C0270916D0280916E0290916F0264
:105A60000E94261A63E289E495E00E948E156091F7
:105A700070027091710280917202909173020E9483
:105A8000261A80917F02882329F06AE289E495E052
:105A90000E948E1583E20E94F41683E392E00E9436
:105AA000B0268FE392E00E94B02680E091E00E9451
:105AB00064220E94D9220E94141780917A008F7765
:105AC00080937A0080E880BF83E080937F0080919C
:105AD0006400806880936400809164008460809397
